{
  "_format": "hh-sol-artifact-1",
  "contractName": "Apeiron",
  "sourceName": "contracts/Apeiron.sol",
  "abi": [
    {
      "inputs": [],
      "stateMutability": "nonpayable",
      "type": "constructor"
    },
    {
      "anonymous": false,
      "inputs": [
        {
          "indexed": true,
          "internalType": "address",
          "name": "owner",
          "type": "address"
        },
        {
          "indexed": true,
          "internalType": "address",
          "name": "approved",
          "type": "address"
        },
        {
          "indexed": true,
          "internalType": "uint256",
          "name": "tokenId",
          "type": "uint256"
        }
      ],
      "name": "Approval",
      "type": "event"
    },
    {
      "anonymous": false,
      "inputs": [
        {
          "indexed": true,
          "internalType": "address",
          "name": "owner",
          "type": "address"
        },
        {
          "indexed": true,
          "internalType": "address",
          "name": "operator",
          "type": "address"
        },
        {
          "indexed": false,
          "internalType": "bool",
          "name": "approved",
          "type": "bool"
        }
      ],
      "name": "ApprovalForAll",
      "type": "event"
    },
    {
      "anonymous": false,
      "inputs": [
        {
          "indexed": true,
          "internalType": "address",
          "name": "previousOwner",
          "type": "address"
        },
        {
          "indexed": true,
          "internalType": "address",
          "name": "newOwner",
          "type": "address"
        }
      ],
      "name": "OwnershipTransferred",
      "type": "event"
    },
    {
      "anonymous": false,
      "inputs": [
        {
          "indexed": false,
          "internalType": "address",
          "name": "account",
          "type": "address"
        }
      ],
      "name": "Paused",
      "type": "event"
    },
    {
      "anonymous": false,
      "inputs": [
        {
          "indexed": true,
          "internalType": "address",
          "name": "from",
          "type": "address"
        },
        {
          "indexed": true,
          "internalType": "address",
          "name": "to",
          "type": "address"
        },
        {
          "indexed": true,
          "internalType": "uint256",
          "name": "tokenId",
          "type": "uint256"
        }
      ],
      "name": "Transfer",
      "type": "event"
    },
    {
      "anonymous": false,
      "inputs": [
        {
          "indexed": false,
          "internalType": "address",
          "name": "account",
          "type": "address"
        }
      ],
      "name": "Unpaused",
      "type": "event"
    },
    {
      "inputs": [
        {
          "internalType": "address",
          "name": "to",
          "type": "address"
        },
        {
          "internalType": "uint256",
          "name": "tokenId",
          "type": "uint256"
        }
      ],
      "name": "approve",
      "outputs": [],
      "stateMutability": "nonpayable",
      "type": "function"
    },
    {
      "inputs": [
        {
          "internalType": "address",
          "name": "owner",
          "type": "address"
        }
      ],
      "name": "balanceOf",
      "outputs": [
        {
          "internalType": "uint256",
          "name": "",
          "type": "uint256"
        }
      ],
      "stateMutability": "view",
      "type": "function"
    },
    {
      "inputs": [
        {
          "internalType": "uint256",
          "name": "tokenId",
          "type": "uint256"
        }
      ],
      "name": "burn",
      "outputs": [],
      "stateMutability": "nonpayable",
      "type": "function"
    },
    {
      "inputs": [
        {
          "internalType": "bool",
          "name": "_publicMintOpen",
          "type": "bool"
        },
        {
          "internalType": "bool",
          "name": "_whiteListMintOpen",
          "type": "bool"
        }
      ],
      "name": "editMintWindow",
      "outputs": [],
      "stateMutability": "nonpayable",
      "type": "function"
    },
    {
      "inputs": [
        {
          "internalType": "uint256",
          "name": "tokenId",
          "type": "uint256"
        }
      ],
      "name": "getApproved",
      "outputs": [
        {
          "internalType": "address",
          "name": "",
          "type": "address"
        }
      ],
      "stateMutability": "view",
      "type": "function"
    },
    {
      "inputs": [
        {
          "internalType": "address",
          "name": "owner",
          "type": "address"
        },
        {
          "internalType": "address",
          "name": "operator",
          "type": "address"
        }
      ],
      "name": "isApprovedForAll",
      "outputs": [
        {
          "internalType": "bool",
          "name": "",
          "type": "bool"
        }
      ],
      "stateMutability": "view",
      "type": "function"
    },
    {
      "inputs": [],
      "name": "name",
      "outputs": [
        {
          "internalType": "string",
          "name": "",
          "type": "string"
        }
      ],
      "stateMutability": "view",
      "type": "function"
    },
    {
      "inputs": [],
      "name": "owner",
      "outputs": [
        {
          "internalType": "address",
          "name": "",
          "type": "address"
        }
      ],
      "stateMutability": "view",
      "type": "function"
    },
    {
      "inputs": [
        {
          "internalType": "uint256",
          "name": "tokenId",
          "type": "uint256"
        }
      ],
      "name": "ownerOf",
      "outputs": [
        {
          "internalType": "address",
          "name": "",
          "type": "address"
        }
      ],
      "stateMutability": "view",
      "type": "function"
    },
    {
      "inputs": [],
      "name": "pause",
      "outputs": [],
      "stateMutability": "nonpayable",
      "type": "function"
    },
    {
      "inputs": [],
      "name": "paused",
      "outputs": [
        {
          "internalType": "bool",
          "name": "",
          "type": "bool"
        }
      ],
      "stateMutability": "view",
      "type": "function"
    },
    {
      "inputs": [
        {
          "internalType": "string",
          "name": "uri",
          "type": "string"
        }
      ],
      "name": "publicMint",
      "outputs": [],
      "stateMutability": "payable",
      "type": "function"
    },
    {
      "inputs": [],
      "name": "publicMintOpen",
      "outputs": [
        {
          "internalType": "bool",
          "name": "",
          "type": "bool"
        }
      ],
      "stateMutability": "view",
      "type": "function"
    },
    {
      "inputs": [],
      "name": "renounceOwnership",
      "outputs": [],
      "stateMutability": "nonpayable",
      "type": "function"
    },
    {
      "inputs": [
        {
          "internalType": "address",
          "name": "from",
          "type": "address"
        },
        {
          "internalType": "address",
          "name": "to",
          "type": "address"
        },
        {
          "internalType": "uint256",
          "name": "tokenId",
          "type": "uint256"
        }
      ],
      "name": "safeTransferFrom",
      "outputs": [],
      "stateMutability": "nonpayable",
      "type": "function"
    },
    {
      "inputs": [
        {
          "internalType": "address",
          "name": "from",
          "type": "address"
        },
        {
          "internalType": "address",
          "name": "to",
          "type": "address"
        },
        {
          "internalType": "uint256",
          "name": "tokenId",
          "type": "uint256"
        },
        {
          "internalType": "bytes",
          "name": "data",
          "type": "bytes"
        }
      ],
      "name": "safeTransferFrom",
      "outputs": [],
      "stateMutability": "nonpayable",
      "type": "function"
    },
    {
      "inputs": [
        {
          "internalType": "address",
          "name": "operator",
          "type": "address"
        },
        {
          "internalType": "bool",
          "name": "approved",
          "type": "bool"
        }
      ],
      "name": "setApprovalForAll",
      "outputs": [],
      "stateMutability": "nonpayable",
      "type": "function"
    },
    {
      "inputs": [
        {
          "internalType": "address[]",
          "name": "addresses",
          "type": "address[]"
        }
      ],
      "name": "setWhiteList",
      "outputs": [],
      "stateMutability": "nonpayable",
      "type": "function"
    },
    {
      "inputs": [
        {
          "internalType": "bytes4",
          "name": "interfaceId",
          "type": "bytes4"
        }
      ],
      "name": "supportsInterface",
      "outputs": [
        {
          "internalType": "bool",
          "name": "",
          "type": "bool"
        }
      ],
      "stateMutability": "view",
      "type": "function"
    },
    {
      "inputs": [],
      "name": "symbol",
      "outputs": [
        {
          "internalType": "string",
          "name": "",
          "type": "string"
        }
      ],
      "stateMutability": "view",
      "type": "function"
    },
    {
      "inputs": [
        {
          "internalType": "uint256",
          "name": "index",
          "type": "uint256"
        }
      ],
      "name": "tokenByIndex",
      "outputs": [
        {
          "internalType": "uint256",
          "name": "",
          "type": "uint256"
        }
      ],
      "stateMutability": "view",
      "type": "function"
    },
    {
      "inputs": [
        {
          "internalType": "address",
          "name": "owner",
          "type": "address"
        },
        {
          "internalType": "uint256",
          "name": "index",
          "type": "uint256"
        }
      ],
      "name": "tokenOfOwnerByIndex",
      "outputs": [
        {
          "internalType": "uint256",
          "name": "",
          "type": "uint256"
        }
      ],
      "stateMutability": "view",
      "type": "function"
    },
    {
      "inputs": [
        {
          "internalType": "uint256",
          "name": "tokenId",
          "type": "uint256"
        }
      ],
      "name": "tokenURI",
      "outputs": [
        {
          "internalType": "string",
          "name": "",
          "type": "string"
        }
      ],
      "stateMutability": "view",
      "type": "function"
    },
    {
      "inputs": [],
      "name": "totalSupply",
      "outputs": [
        {
          "internalType": "uint256",
          "name": "",
          "type": "uint256"
        }
      ],
      "stateMutability": "view",
      "type": "function"
    },
    {
      "inputs": [
        {
          "internalType": "address",
          "name": "from",
          "type": "address"
        },
        {
          "internalType": "address",
          "name": "to",
          "type": "address"
        },
        {
          "internalType": "uint256",
          "name": "tokenId",
          "type": "uint256"
        }
      ],
      "name": "transferFrom",
      "outputs": [],
      "stateMutability": "nonpayable",
      "type": "function"
    },
    {
      "inputs": [
        {
          "internalType": "address",
          "name": "newOwner",
          "type": "address"
        }
      ],
      "name": "transferOwnership",
      "outputs": [],
      "stateMutability": "nonpayable",
      "type": "function"
    },
    {
      "inputs": [],
      "name": "unpause",
      "outputs": [],
      "stateMutability": "nonpayable",
      "type": "function"
    },
    {
      "inputs": [
        {
          "internalType": "address",
          "name": "",
          "type": "address"
        }
      ],
      "name": "whiteList",
      "outputs": [
        {
          "internalType": "bool",
          "name": "",
          "type": "bool"
        }
      ],
      "stateMutability": "view",
      "type": "function"
    },
    {
      "inputs": [
        {
          "internalType": "string",
          "name": "uri",
          "type": "string"
        }
      ],
      "name": "whiteListMint",
      "outputs": [],
      "stateMutability": "payable",
      "type": "function"
    },
    {
      "inputs": [],
      "name": "whiteListMintOpen",
      "outputs": [
        {
          "internalType": "bool",
          "name": "",
          "type": "bool"
        }
      ],
      "stateMutability": "view",
      "type": "function"
    }
  ],
  "bytecode": "0x6080604052610d05600c556000600d60006101000a81548160ff0219169083151502179055506000600d60016101000a81548160ff0219169083151502179055503480156200004d57600080fd5b506040518060400160405280600781526020017f41706569726f6e000000000000000000000000000000000000000000000000008152506040518060400160405280600481526020017f4150524e000000000000000000000000000000000000000000000000000000008152508160009081620000cb919062000469565b508060019081620000dd919062000469565b5050506000600b60006101000a81548160ff0219169083151502179055506200011b6200010f6200012160201b60201c565b6200012960201b60201c565b62000550565b600033905090565b6000600b60019054906101000a900473ffffffffffffffffffffffffffffffffffffffff16905081600b60016101000a81548173ffffffffffffffffffffffffffffffffffffffff021916908373ffffffffffffffffffffffffffffffffffffffff1602179055508173ffffffffffffffffffffffffffffffffffffffff168173ffffffffffffffffffffffffffffffffffffffff167f8be0079c531659141344cd1fd0a4f28419497f9722a3daafe3b4186f6b6457e060405160405180910390a35050565b600081519050919050565b7f4e487b7100000000000000000000000000000000000000000000000000000000600052604160045260246000fd5b7f4e487b7100000000000000000000000000000000000000000000000000000000600052602260045260246000fd5b600060028204905060018216806200027157607f821691505b60208210810362000287576200028662000229565b5b50919050565b60008190508160005260206000209050919050565b60006020601f8301049050919050565b600082821b905092915050565b600060088302620002f17fffffffffffffffffffffffffffffffffffffffffffffffffffffffffffffffff82620002b2565b620002fd8683620002b2565b95508019841693508086168417925050509392505050565b6000819050919050565b6000819050919050565b60006200034a620003446200033e8462000315565b6200031f565b62000315565b9050919050565b6000819050919050565b620003668362000329565b6200037e620003758262000351565b848454620002bf565b825550505050565b600090565b6200039562000386565b620003a28184846200035b565b505050565b5b81811015620003ca57620003be6000826200038b565b600181019050620003a8565b5050565b601f8211156200041957620003e3816200028d565b620003ee84620002a2565b81016020851015620003fe578190505b620004166200040d85620002a2565b830182620003a7565b50505b505050565b600082821c905092915050565b60006200043e600019846008026200041e565b1980831691505092915050565b60006200045983836200042b565b9150826002028217905092915050565b6200047482620001ef565b67ffffffffffffffff81111562000490576200048f620001fa565b5b6200049c825462000258565b620004a9828285620003ce565b600060209050601f831160018114620004e15760008415620004cc578287015190505b620004d885826200044b565b86555062000548565b601f198416620004f1866200028d565b60005b828110156200051b57848901518255600182019150602085019450602081019050620004f4565b868310156200053b578489015162000537601f8916826200042b565b8355505b6001600288020188555050505b505050505050565b6147a480620005606000396000f3fe6080604052600436106101cd5760003560e01c806370a08231116100f7578063a22cb46511610095578063c87b56dd11610064578063c87b56dd14610644578063e985e9c514610681578063ee31e289146106be578063f2fde38b146106e9576101cd565b8063a22cb465146105ab578063b3d7acf9146105d4578063b88d4fde146105f0578063bcc9ca5b14610619576101cd565b80638456cb59116100d15780638456cb59146105155780638da5cb5b1461052c57806390ce72541461055757806395d89b4114610580576101cd565b806370a0823114610498578063715018a6146104d5578063775b9c13146104ec576101cd565b80632f745c591161016f57806342966c681161013e57806342966c68146103ca5780634f6ccce7146103f35780635c975abb146104305780636352211e1461045b576101cd565b80632f745c5914610310578063372c12b11461034d5780633f4ba83a1461038a57806342842e0e146103a1576101cd565b8063081812fc116101ab578063081812fc14610256578063095ea7b31461029357806318160ddd146102bc57806323b872dd146102e7576101cd565b806301ffc9a7146101d25780630217541e1461020f57806306fdde031461022b575b600080fd5b3480156101de57600080fd5b506101f960048036038101906101f49190612ed4565b610712565b6040516102069190612f1c565b60405180910390f35b6102296004803603810190610224919061307d565b610724565b005b34801561023757600080fd5b5061024061089f565b60405161024d9190613145565b60405180910390f35b34801561026257600080fd5b5061027d6004803603810190610278919061319d565b610931565b60405161028a919061320b565b60405180910390f35b34801561029f57600080fd5b506102ba60048036038101906102b59190613252565b610977565b005b3480156102c857600080fd5b506102d1610a8e565b6040516102de91906132a1565b60405180910390f35b3480156102f357600080fd5b5061030e600480360381019061030991906132bc565b610a9b565b005b34801561031c57600080fd5b5061033760048036038101906103329190613252565b610afb565b60405161034491906132a1565b60405180910390f35b34801561035957600080fd5b50610374600480360381019061036f919061330f565b610ba0565b6040516103819190612f1c565b60405180910390f35b34801561039657600080fd5b5061039f610bc0565b005b3480156103ad57600080fd5b506103c860048036038101906103c391906132bc565b610bd2565b005b3480156103d657600080fd5b506103f160048036038101906103ec919061319d565b610bf2565b005b3480156103ff57600080fd5b5061041a6004803603810190610415919061319d565b610c4e565b60405161042791906132a1565b60405180910390f35b34801561043c57600080fd5b50610445610cbf565b6040516104529190612f1c565b60405180910390f35b34801561046757600080fd5b50610482600480360381019061047d919061319d565b610cd6565b60405161048f919061320b565b60405180910390f35b3480156104a457600080fd5b506104bf60048036038101906104ba919061330f565b610d5c565b6040516104cc91906132a1565b60405180910390f35b3480156104e157600080fd5b506104ea610e13565b005b3480156104f857600080fd5b50610513600480360381019061050e919061339c565b610e27565b005b34801561052157600080fd5b5061052a610ed4565b005b34801561053857600080fd5b50610541610ee6565b60405161054e919061320b565b60405180910390f35b34801561056357600080fd5b5061057e60048036038101906105799190613415565b610f10565b005b34801561058c57600080fd5b50610595610f50565b6040516105a29190613145565b60405180910390f35b3480156105b757600080fd5b506105d260048036038101906105cd9190613455565b610fe2565b005b6105ee60048036038101906105e9919061307d565b610ff8565b005b3480156105fc57600080fd5b5061061760048036038101906106129190613536565b6110e7565b005b34801561062557600080fd5b5061062e611149565b60405161063b9190612f1c565b60405180910390f35b34801561065057600080fd5b5061066b6004803603810190610666919061319d565b61115c565b6040516106789190613145565b60405180910390f35b34801561068d57600080fd5b506106a860048036038101906106a391906135b9565b61116e565b6040516106b59190612f1c565b60405180910390f35b3480156106ca57600080fd5b506106d3611202565b6040516106e09190612f1c565b60405180910390f35b3480156106f557600080fd5b50610710600480360381019061070b919061330f565b611215565b005b600061071d82611298565b9050919050565b600d60019054906101000a900460ff16610773576040517f08c379a000000000000000000000000000000000000000000000000000000000815260040161076a90613645565b60405180910390fd5b600e60003373ffffffffffffffffffffffffffffffffffffffff1673ffffffffffffffffffffffffffffffffffffffff16815260200190815260200160002060009054906101000a900460ff166107ff576040517f08c379a00000000000000000000000000000000000000000000000000000000081526004016107f6906136b1565b60405180910390fd5b66038d7ea4c680003414610848576040517f08c379a000000000000000000000000000000000000000000000000000000000815260040161083f9061371d565b60405180910390fd5b600c54610853610a8e565b10610893576040517f08c379a000000000000000000000000000000000000000000000000000000000815260040161088a90613789565b60405180910390fd5b61089c81611312565b50565b6060600080546108ae906137d8565b80601f01602080910402602001604051908101604052809291908181526020018280546108da906137d8565b80156109275780601f106108fc57610100808354040283529160200191610927565b820191906000526020600020905b81548152906001019060200180831161090a57829003601f168201915b5050505050905090565b600061093c82611342565b6004600083815260200190815260200160002060009054906101000a900473ffffffffffffffffffffffffffffffffffffffff169050919050565b600061098282610cd6565b90508073ffffffffffffffffffffffffffffffffffffffff168373ffffffffffffffffffffffffffffffffffffffff16036109f2576040517f08c379a00000000000000000000000000000000000000000000000000000000081526004016109e99061387b565b60405180910390fd5b8073ffffffffffffffffffffffffffffffffffffffff16610a1161138d565b73ffffffffffffffffffffffffffffffffffffffff161480610a405750610a3f81610a3a61138d565b61116e565b5b610a7f576040517f08c379a0000000000000000000000000000000000000000000000000000000008152600401610a769061390d565b60405180910390fd5b610a898383611395565b505050565b6000600880549050905090565b610aac610aa661138d565b8261144e565b610aeb576040517f08c379a0000000000000000000000000000000000000000000000000000000008152600401610ae29061399f565b60405180910390fd5b610af68383836114e3565b505050565b6000610b0683610d5c565b8210610b47576040517f08c379a0000000000000000000000000000000000000000000000000000000008152600401610b3e90613a31565b60405180910390fd5b600660008473ffffffffffffffffffffffffffffffffffffffff1673ffffffffffffffffffffffffffffffffffffffff168152602001908152602001600020600083815260200190815260200160002054905092915050565b600e6020528060005260406000206000915054906101000a900460ff1681565b610bc86117dc565b610bd061185a565b565b610bed838383604051806020016040528060008152506110e7565b505050565b610c03610bfd61138d565b8261144e565b610c42576040517f08c379a0000000000000000000000000000000000000000000000000000000008152600401610c399061399f565b60405180910390fd5b610c4b816118bd565b50565b6000610c58610a8e565b8210610c99576040517f08c379a0000000000000000000000000000000000000000000000000000000008152600401610c9090613ac3565b60405180910390fd5b60088281548110610cad57610cac613ae3565b5b90600052602060002001549050919050565b6000600b60009054906101000a900460ff16905090565b600080610ce2836118c9565b9050600073ffffffffffffffffffffffffffffffffffffffff168173ffffffffffffffffffffffffffffffffffffffff1603610d53576040517f08c379a0000000000000000000000000000000000000000000000000000000008152600401610d4a90613b5e565b60405180910390fd5b80915050919050565b60008073ffffffffffffffffffffffffffffffffffffffff168273ffffffffffffffffffffffffffffffffffffffff1603610dcc576040517f08c379a0000000000000000000000000000000000000000000000000000000008152600401610dc390613bf0565b60405180910390fd5b600360008373ffffffffffffffffffffffffffffffffffffffff1673ffffffffffffffffffffffffffffffffffffffff168152602001908152602001600020549050919050565b610e1b6117dc565b610e256000611906565b565b610e2f6117dc565b60005b82829050811015610ecf576001600e6000858585818110610e5657610e55613ae3565b5b9050602002016020810190610e6b919061330f565b73ffffffffffffffffffffffffffffffffffffffff1673ffffffffffffffffffffffffffffffffffffffff16815260200190815260200160002060006101000a81548160ff0219169083151502179055508080610ec790613c3f565b915050610e32565b505050565b610edc6117dc565b610ee46119cc565b565b6000600b60019054906101000a900473ffffffffffffffffffffffffffffffffffffffff16905090565b610f186117dc565b81600d60006101000a81548160ff02191690831515021790555080600d60016101000a81548160ff0219169083151502179055505050565b606060018054610f5f906137d8565b80601f0160208091040260200160405190810160405280929190818152602001828054610f8b906137d8565b8015610fd85780601f10610fad57610100808354040283529160200191610fd8565b820191906000526020600020905b815481529060010190602001808311610fbb57829003601f168201915b5050505050905090565b610ff4610fed61138d565b8383611a2f565b5050565b600d60009054906101000a900460ff16611047576040517f08c379a000000000000000000000000000000000000000000000000000000000815260040161103e90613cd3565b60405180910390fd5b66038d7ea4c680003414611090576040517f08c379a00000000000000000000000000000000000000000000000000000000081526004016110879061371d565b60405180910390fd5b600c5461109b610a8e565b106110db576040517f08c379a00000000000000000000000000000000000000000000000000000000081526004016110d290613789565b60405180910390fd5b6110e481611312565b50565b6110f86110f261138d565b8361144e565b611137576040517f08c379a000000000000000000000000000000000000000000000000000000000815260040161112e9061399f565b60405180910390fd5b61114384848484611b9b565b50505050565b600d60009054906101000a900460ff1681565b606061116782611bf7565b9050919050565b6000600560008473ffffffffffffffffffffffffffffffffffffffff1673ffffffffffffffffffffffffffffffffffffffff16815260200190815260200160002060008373ffffffffffffffffffffffffffffffffffffffff1673ffffffffffffffffffffffffffffffffffffffff16815260200190815260200160002060009054906101000a900460ff16905092915050565b600d60019054906101000a900460ff1681565b61121d6117dc565b600073ffffffffffffffffffffffffffffffffffffffff168173ffffffffffffffffffffffffffffffffffffffff160361128c576040517f08c379a000000000000000000000000000000000000000000000000000000000815260040161128390613d65565b60405180910390fd5b61129581611906565b50565b60007f780e9d63000000000000000000000000000000000000000000000000000000007bffffffffffffffffffffffffffffffffffffffffffffffffffffffff1916827bffffffffffffffffffffffffffffffffffffffffffffffffffffffff1916148061130b575061130a82611d09565b5b9050919050565b600061131e600f611deb565b905061132a600f611df9565b6113343382611e0f565b61133e8183611e2d565b5050565b61134b81611e9a565b61138a576040517f08c379a000000000000000000000000000000000000000000000000000000000815260040161138190613b5e565b60405180910390fd5b50565b600033905090565b816004600083815260200190815260200160002060006101000a81548173ffffffffffffffffffffffffffffffffffffffff021916908373ffffffffffffffffffffffffffffffffffffffff160217905550808273ffffffffffffffffffffffffffffffffffffffff1661140883610cd6565b73ffffffffffffffffffffffffffffffffffffffff167f8c5be1e5ebec7d5bd14f71427d1e84f3dd0314c0f7b2291e5b200ac8c7c3b92560405160405180910390a45050565b60008061145a83610cd6565b90508073ffffffffffffffffffffffffffffffffffffffff168473ffffffffffffffffffffffffffffffffffffffff16148061149c575061149b818561116e565b5b806114da57508373ffffffffffffffffffffffffffffffffffffffff166114c284610931565b73ffffffffffffffffffffffffffffffffffffffff16145b91505092915050565b8273ffffffffffffffffffffffffffffffffffffffff1661150382610cd6565b73ffffffffffffffffffffffffffffffffffffffff1614611559576040517f08c379a000000000000000000000000000000000000000000000000000000000815260040161155090613df7565b60405180910390fd5b600073ffffffffffffffffffffffffffffffffffffffff168273ffffffffffffffffffffffffffffffffffffffff16036115c8576040517f08c379a00000000000000000000000000000000000000000000000000000000081526004016115bf90613e89565b60405180910390fd5b6115d58383836001611edb565b8273ffffffffffffffffffffffffffffffffffffffff166115f582610cd6565b73ffffffffffffffffffffffffffffffffffffffff161461164b576040517f08c379a000000000000000000000000000000000000000000000000000000000815260040161164290613df7565b60405180910390fd5b6004600082815260200190815260200160002060006101000a81549073ffffffffffffffffffffffffffffffffffffffff02191690556001600360008573ffffffffffffffffffffffffffffffffffffffff1673ffffffffffffffffffffffffffffffffffffffff168152602001908152602001600020600082825403925050819055506001600360008473ffffffffffffffffffffffffffffffffffffffff1673ffffffffffffffffffffffffffffffffffffffff16815260200190815260200160002060008282540192505081905550816002600083815260200190815260200160002060006101000a81548173ffffffffffffffffffffffffffffffffffffffff021916908373ffffffffffffffffffffffffffffffffffffffff160217905550808273ffffffffffffffffffffffffffffffffffffffff168473ffffffffffffffffffffffffffffffffffffffff167fddf252ad1be2c89b69c2b068fc378daa952ba7f163c4a11628f55a4df523b3ef60405160405180910390a46117d78383836001611ef5565b505050565b6117e461138d565b73ffffffffffffffffffffffffffffffffffffffff16611802610ee6565b73ffffffffffffffffffffffffffffffffffffffff1614611858576040517f08c379a000000000000000000000000000000000000000000000000000000000815260040161184f90613ef5565b60405180910390fd5b565b611862611efb565b6000600b60006101000a81548160ff0219169083151502179055507f5db9ee0a495bf2e6ff9c91a7834c1ba4fdd244a5e8aa4e537bd38aeae4b073aa6118a661138d565b6040516118b3919061320b565b60405180910390a1565b6118c681611f44565b50565b60006002600083815260200190815260200160002060009054906101000a900473ffffffffffffffffffffffffffffffffffffffff169050919050565b6000600b60019054906101000a900473ffffffffffffffffffffffffffffffffffffffff16905081600b60016101000a81548173ffffffffffffffffffffffffffffffffffffffff021916908373ffffffffffffffffffffffffffffffffffffffff1602179055508173ffffffffffffffffffffffffffffffffffffffff168173ffffffffffffffffffffffffffffffffffffffff167f8be0079c531659141344cd1fd0a4f28419497f9722a3daafe3b4186f6b6457e060405160405180910390a35050565b6119d4611f97565b6001600b60006101000a81548160ff0219169083151502179055507f62e78cea01bee320cd4e420270b5ea74000d11b0c9f74754ebdbfc544b05a258611a1861138d565b604051611a25919061320b565b60405180910390a1565b8173ffffffffffffffffffffffffffffffffffffffff168373ffffffffffffffffffffffffffffffffffffffff1603611a9d576040517f08c379a0000000000000000000000000000000000000000000000000000000008152600401611a9490613f61565b60405180910390fd5b80600560008573ffffffffffffffffffffffffffffffffffffffff1673ffffffffffffffffffffffffffffffffffffffff16815260200190815260200160002060008473ffffffffffffffffffffffffffffffffffffffff1673ffffffffffffffffffffffffffffffffffffffff16815260200190815260200160002060006101000a81548160ff0219169083151502179055508173ffffffffffffffffffffffffffffffffffffffff168373ffffffffffffffffffffffffffffffffffffffff167f17307eab39ab6107e8899845ad3d59bd9653f200f220920489ca2b5937696c3183604051611b8e9190612f1c565b60405180910390a3505050565b611ba68484846114e3565b611bb284848484611fe1565b611bf1576040517f08c379a0000000000000000000000000000000000000000000000000000000008152600401611be890613ff3565b60405180910390fd5b50505050565b6060611c0282611342565b6000600a60008481526020019081526020016000208054611c22906137d8565b80601f0160208091040260200160405190810160405280929190818152602001828054611c4e906137d8565b8015611c9b5780601f10611c7057610100808354040283529160200191611c9b565b820191906000526020600020905b815481529060010190602001808311611c7e57829003601f168201915b505050505090506000611cac612168565b90506000815103611cc1578192505050611d04565b600082511115611cf6578082604051602001611cde92919061404f565b60405160208183030381529060405292505050611d04565b611cff846121a5565b925050505b919050565b60007f80ac58cd000000000000000000000000000000000000000000000000000000007bffffffffffffffffffffffffffffffffffffffffffffffffffffffff1916827bffffffffffffffffffffffffffffffffffffffffffffffffffffffff19161480611dd457507f5b5e139f000000000000000000000000000000000000000000000000000000007bffffffffffffffffffffffffffffffffffffffffffffffffffffffff1916827bffffffffffffffffffffffffffffffffffffffffffffffffffffffff1916145b80611de45750611de38261220d565b5b9050919050565b600081600001549050919050565b6001816000016000828254019250508190555050565b611e29828260405180602001604052806000815250612277565b5050565b611e3682611e9a565b611e75576040517f08c379a0000000000000000000000000000000000000000000000000000000008152600401611e6c906140e5565b60405180910390fd5b80600a60008481526020019081526020016000209081611e9591906142b1565b505050565b60008073ffffffffffffffffffffffffffffffffffffffff16611ebc836118c9565b73ffffffffffffffffffffffffffffffffffffffff1614159050919050565b611ee3611f97565b611eef848484846122d2565b50505050565b50505050565b611f03610cbf565b611f42576040517f08c379a0000000000000000000000000000000000000000000000000000000008152600401611f39906143cf565b60405180910390fd5b565b611f4d81612430565b6000600a60008381526020019081526020016000208054611f6d906137d8565b905014611f9457600a60008281526020019081526020016000206000611f939190612e0b565b5b50565b611f9f610cbf565b15611fdf576040517f08c379a0000000000000000000000000000000000000000000000000000000008152600401611fd69061443b565b60405180910390fd5b565b60006120028473ffffffffffffffffffffffffffffffffffffffff1661257e565b1561215b578373ffffffffffffffffffffffffffffffffffffffff1663150b7a0261202b61138d565b8786866040518563ffffffff1660e01b815260040161204d94939291906144b0565b6020604051808303816000875af192505050801561208957506040513d601f19601f820116820180604052508101906120869190614511565b60015b61210b573d80600081146120b9576040519150601f19603f3d011682016040523d82523d6000602084013e6120be565b606091505b506000815103612103576040517f08c379a00000000000000000000000000000000000000000000000000000000081526004016120fa90613ff3565b60405180910390fd5b805181602001fd5b63150b7a0260e01b7bffffffffffffffffffffffffffffffffffffffffffffffffffffffff1916817bffffffffffffffffffffffffffffffffffffffffffffffffffffffff191614915050612160565b600190505b949350505050565b60606040518060400160405280600781526020017f697066733a2f2f00000000000000000000000000000000000000000000000000815250905090565b60606121b082611342565b60006121ba612168565b905060008151116121da5760405180602001604052806000815250612205565b806121e4846125a1565b6040516020016121f592919061404f565b6040516020818303038152906040525b915050919050565b60007f01ffc9a7000000000000000000000000000000000000000000000000000000007bffffffffffffffffffffffffffffffffffffffffffffffffffffffff1916827bffffffffffffffffffffffffffffffffffffffffffffffffffffffff1916149050919050565b612281838361266f565b61228e6000848484611fe1565b6122cd576040517f08c379a00000000000000000000000000000000000000000000000000000000081526004016122c490613ff3565b60405180910390fd5b505050565b6122de8484848461288c565b6001811115612322576040517f08c379a0000000000000000000000000000000000000000000000000000000008152600401612319906145b0565b60405180910390fd5b6000829050600073ffffffffffffffffffffffffffffffffffffffff168573ffffffffffffffffffffffffffffffffffffffff160361236957612364816129b2565b6123a8565b8373ffffffffffffffffffffffffffffffffffffffff168573ffffffffffffffffffffffffffffffffffffffff16146123a7576123a685826129fb565b5b5b600073ffffffffffffffffffffffffffffffffffffffff168473ffffffffffffffffffffffffffffffffffffffff16036123ea576123e581612b68565b612429565b8473ffffffffffffffffffffffffffffffffffffffff168473ffffffffffffffffffffffffffffffffffffffff1614612428576124278482612c39565b5b5b5050505050565b600061243b82610cd6565b905061244b816000846001611edb565b61245482610cd6565b90506004600083815260200190815260200160002060006101000a81549073ffffffffffffffffffffffffffffffffffffffff02191690556001600360008373ffffffffffffffffffffffffffffffffffffffff1673ffffffffffffffffffffffffffffffffffffffff168152602001908152602001600020600082825403925050819055506002600083815260200190815260200160002060006101000a81549073ffffffffffffffffffffffffffffffffffffffff021916905581600073ffffffffffffffffffffffffffffffffffffffff168273ffffffffffffffffffffffffffffffffffffffff167fddf252ad1be2c89b69c2b068fc378daa952ba7f163c4a11628f55a4df523b3ef60405160405180910390a461257a816000846001611ef5565b5050565b6000808273ffffffffffffffffffffffffffffffffffffffff163b119050919050565b6060600060016125b084612cb8565b01905060008167ffffffffffffffff8111156125cf576125ce612f52565b5b6040519080825280601f01601f1916602001820160405280156126015781602001600182028036833780820191505090505b509050600082602001820190505b600115612664578080600190039150507f3031323334353637383961626364656600000000000000000000000000000000600a86061a8153600a8581612658576126576145d0565b5b0494506000850361260f575b819350505050919050565b600073ffffffffffffffffffffffffffffffffffffffff168273ffffffffffffffffffffffffffffffffffffffff16036126de576040517f08c379a00000000000000000000000000000000000000000000000000000000081526004016126d59061464b565b60405180910390fd5b6126e781611e9a565b15612727576040517f08c379a000000000000000000000000000000000000000000000000000000000815260040161271e906146b7565b60405180910390fd5b612735600083836001611edb565b61273e81611e9a565b1561277e576040517f08c379a0000000000000000000000000000000000000000000000000000000008152600401612775906146b7565b60405180910390fd5b6001600360008473ffffffffffffffffffffffffffffffffffffffff1673ffffffffffffffffffffffffffffffffffffffff16815260200190815260200160002060008282540192505081905550816002600083815260200190815260200160002060006101000a81548173ffffffffffffffffffffffffffffffffffffffff021916908373ffffffffffffffffffffffffffffffffffffffff160217905550808273ffffffffffffffffffffffffffffffffffffffff16600073ffffffffffffffffffffffffffffffffffffffff167fddf252ad1be2c89b69c2b068fc378daa952ba7f163c4a11628f55a4df523b3ef60405160405180910390a4612888600083836001611ef5565b5050565b60018111156129ac57600073ffffffffffffffffffffffffffffffffffffffff168473ffffffffffffffffffffffffffffffffffffffff16146129205780600360008673ffffffffffffffffffffffffffffffffffffffff1673ffffffffffffffffffffffffffffffffffffffff168152602001908152602001600020600082825461291891906146d7565b925050819055505b600073ffffffffffffffffffffffffffffffffffffffff168373ffffffffffffffffffffffffffffffffffffffff16146129ab5780600360008573ffffffffffffffffffffffffffffffffffffffff1673ffffffffffffffffffffffffffffffffffffffff16815260200190815260200160002060008282546129a3919061470b565b925050819055505b5b50505050565b6008805490506009600083815260200190815260200160002081905550600881908060018154018082558091505060019003906000526020600020016000909190919091505550565b60006001612a0884610d5c565b612a1291906146d7565b9050600060076000848152602001908152602001600020549050818114612af7576000600660008673ffffffffffffffffffffffffffffffffffffffff1673ffffffffffffffffffffffffffffffffffffffff168152602001908152602001600020600084815260200190815260200160002054905080600660008773ffffffffffffffffffffffffffffffffffffffff1673ffffffffffffffffffffffffffffffffffffffff168152602001908152602001600020600084815260200190815260200160002081905550816007600083815260200190815260200160002081905550505b6007600084815260200190815260200160002060009055600660008573ffffffffffffffffffffffffffffffffffffffff1673ffffffffffffffffffffffffffffffffffffffff16815260200190815260200160002060008381526020019081526020016000206000905550505050565b60006001600880549050612b7c91906146d7565b9050600060096000848152602001908152602001600020549050600060088381548110612bac57612bab613ae3565b5b906000526020600020015490508060088381548110612bce57612bcd613ae3565b5b906000526020600020018190555081600960008381526020019081526020016000208190555060096000858152602001908152602001600020600090556008805480612c1d57612c1c61473f565b5b6001900381819060005260206000200160009055905550505050565b6000612c4483610d5c565b905081600660008573ffffffffffffffffffffffffffffffffffffffff1673ffffffffffffffffffffffffffffffffffffffff168152602001908152602001600020600083815260200190815260200160002081905550806007600084815260200190815260200160002081905550505050565b600080600090507a184f03e93ff9f4daa797ed6e38ed64bf6a1f0100000000000000008310612d16577a184f03e93ff9f4daa797ed6e38ed64bf6a1f0100000000000000008381612d0c57612d0b6145d0565b5b0492506040810190505b6d04ee2d6d415b85acef81000000008310612d53576d04ee2d6d415b85acef81000000008381612d4957612d486145d0565b5b0492506020810190505b662386f26fc100008310612d8257662386f26fc100008381612d7857612d776145d0565b5b0492506010810190505b6305f5e1008310612dab576305f5e1008381612da157612da06145d0565b5b0492506008810190505b6127108310612dd0576127108381612dc657612dc56145d0565b5b0492506004810190505b60648310612df35760648381612de957612de86145d0565b5b0492506002810190505b600a8310612e02576001810190505b80915050919050565b508054612e17906137d8565b6000825580601f10612e295750612e48565b601f016020900490600052602060002090810190612e479190612e4b565b5b50565b5b80821115612e64576000816000905550600101612e4c565b5090565b6000604051905090565b600080fd5b600080fd5b60007fffffffff0000000000000000000000000000000000000000000000000000000082169050919050565b612eb181612e7c565b8114612ebc57600080fd5b50565b600081359050612ece81612ea8565b92915050565b600060208284031215612eea57612ee9612e72565b5b6000612ef884828501612ebf565b91505092915050565b60008115159050919050565b612f1681612f01565b82525050565b6000602082019050612f316000830184612f0d565b92915050565b600080fd5b600080fd5b6000601f19601f8301169050919050565b7f4e487b7100000000000000000000000000000000000000000000000000000000600052604160045260246000fd5b612f8a82612f41565b810181811067ffffffffffffffff82111715612fa957612fa8612f52565b5b80604052505050565b6000612fbc612e68565b9050612fc88282612f81565b919050565b600067ffffffffffffffff821115612fe857612fe7612f52565b5b612ff182612f41565b9050602081019050919050565b82818337600083830152505050565b600061302061301b84612fcd565b612fb2565b90508281526020810184848401111561303c5761303b612f3c565b5b613047848285612ffe565b509392505050565b600082601f83011261306457613063612f37565b5b813561307484826020860161300d565b91505092915050565b60006020828403121561309357613092612e72565b5b600082013567ffffffffffffffff8111156130b1576130b0612e77565b5b6130bd8482850161304f565b91505092915050565b600081519050919050565b600082825260208201905092915050565b60005b838110156131005780820151818401526020810190506130e5565b60008484015250505050565b6000613117826130c6565b61312181856130d1565b93506131318185602086016130e2565b61313a81612f41565b840191505092915050565b6000602082019050818103600083015261315f818461310c565b905092915050565b6000819050919050565b61317a81613167565b811461318557600080fd5b50565b60008135905061319781613171565b92915050565b6000602082840312156131b3576131b2612e72565b5b60006131c184828501613188565b91505092915050565b600073ffffffffffffffffffffffffffffffffffffffff82169050919050565b60006131f5826131ca565b9050919050565b613205816131ea565b82525050565b600060208201905061322060008301846131fc565b92915050565b61322f816131ea565b811461323a57600080fd5b50565b60008135905061324c81613226565b92915050565b6000806040838503121561326957613268612e72565b5b60006132778582860161323d565b925050602061328885828601613188565b9150509250929050565b61329b81613167565b82525050565b60006020820190506132b66000830184613292565b92915050565b6000806000606084860312156132d5576132d4612e72565b5b60006132e38682870161323d565b93505060206132f48682870161323d565b925050604061330586828701613188565b9150509250925092565b60006020828403121561332557613324612e72565b5b60006133338482850161323d565b91505092915050565b600080fd5b600080fd5b60008083601f84011261335c5761335b612f37565b5b8235905067ffffffffffffffff8111156133795761337861333c565b5b60208301915083602082028301111561339557613394613341565b5b9250929050565b600080602083850312156133b3576133b2612e72565b5b600083013567ffffffffffffffff8111156133d1576133d0612e77565b5b6133dd85828601613346565b92509250509250929050565b6133f281612f01565b81146133fd57600080fd5b50565b60008135905061340f816133e9565b92915050565b6000806040838503121561342c5761342b612e72565b5b600061343a85828601613400565b925050602061344b85828601613400565b9150509250929050565b6000806040838503121561346c5761346b612e72565b5b600061347a8582860161323d565b925050602061348b85828601613400565b9150509250929050565b600067ffffffffffffffff8211156134b0576134af612f52565b5b6134b982612f41565b9050602081019050919050565b60006134d96134d484613495565b612fb2565b9050828152602081018484840111156134f5576134f4612f3c565b5b613500848285612ffe565b509392505050565b600082601f83011261351d5761351c612f37565b5b813561352d8482602086016134c6565b91505092915050565b600080600080608085870312156135505761354f612e72565b5b600061355e8782880161323d565b945050602061356f8782880161323d565b935050604061358087828801613188565b925050606085013567ffffffffffffffff8111156135a1576135a0612e77565b5b6135ad87828801613508565b91505092959194509250565b600080604083850312156135d0576135cf612e72565b5b60006135de8582860161323d565b92505060206135ef8582860161323d565b9150509250929050565b7f5768697465204c697374204d696e74204e6f74204f70656e0000000000000000600082015250565b600061362f6018836130d1565b915061363a826135f9565b602082019050919050565b6000602082019050818103600083015261365e81613622565b9050919050565b7f4e6f74206f6e20746865207768697465206c6973742100000000000000000000600082015250565b600061369b6016836130d1565b91506136a682613665565b602082019050919050565b600060208201905081810360008301526136ca8161368e565b9050919050565b7f4e6f7420656e6f756768206d6f6e657921000000000000000000000000000000600082015250565b60006137076011836130d1565b9150613712826136d1565b602082019050919050565b60006020820190508181036000830152613736816136fa565b9050919050565b7f536f6c64206f7574000000000000000000000000000000000000000000000000600082015250565b60006137736008836130d1565b915061377e8261373d565b602082019050919050565b600060208201905081810360008301526137a281613766565b9050919050565b7f4e487b7100000000000000000000000000000000000000000000000000000000600052602260045260246000fd5b600060028204905060018216806137f057607f821691505b602082108103613803576138026137a9565b5b50919050565b7f4552433732313a20617070726f76616c20746f2063757272656e74206f776e6560008201527f7200000000000000000000000000000000000000000000000000000000000000602082015250565b60006138656021836130d1565b915061387082613809565b604082019050919050565b6000602082019050818103600083015261389481613858565b9050919050565b7f4552433732313a20617070726f76652063616c6c6572206973206e6f7420746f60008201527f6b656e206f776e6572206f7220617070726f76656420666f7220616c6c000000602082015250565b60006138f7603d836130d1565b91506139028261389b565b604082019050919050565b60006020820190508181036000830152613926816138ea565b9050919050565b7f4552433732313a2063616c6c6572206973206e6f7420746f6b656e206f776e6560008201527f72206f7220617070726f76656400000000000000000000000000000000000000602082015250565b6000613989602d836130d1565b91506139948261392d565b604082019050919050565b600060208201905081810360008301526139b88161397c565b9050919050565b7f455243373231456e756d657261626c653a206f776e657220696e646578206f7560008201527f74206f6620626f756e6473000000000000000000000000000000000000000000602082015250565b6000613a1b602b836130d1565b9150613a26826139bf565b604082019050919050565b60006020820190508181036000830152613a4a81613a0e565b9050919050565b7f455243373231456e756d657261626c653a20676c6f62616c20696e646578206f60008201527f7574206f6620626f756e64730000000000000000000000000000000000000000602082015250565b6000613aad602c836130d1565b9150613ab882613a51565b604082019050919050565b60006020820190508181036000830152613adc81613aa0565b9050919050565b7f4e487b7100000000000000000000000000000000000000000000000000000000600052603260045260246000fd5b7f4552433732313a20696e76616c696420746f6b656e2049440000000000000000600082015250565b6000613b486018836130d1565b9150613b5382613b12565b602082019050919050565b60006020820190508181036000830152613b7781613b3b565b9050919050565b7f4552433732313a2061646472657373207a65726f206973206e6f74206120766160008201527f6c6964206f776e65720000000000000000000000000000000000000000000000602082015250565b6000613bda6029836130d1565b9150613be582613b7e565b604082019050919050565b60006020820190508181036000830152613c0981613bcd565b9050919050565b7f4e487b7100000000000000000000000000000000000000000000000000000000600052601160045260246000fd5b6000613c4a82613167565b91507fffffffffffffffffffffffffffffffffffffffffffffffffffffffffffffffff8203613c7c57613c7b613c10565b5b600182019050919050565b7f5075626c6963204d696e74204e6f74204f70656e000000000000000000000000600082015250565b6000613cbd6014836130d1565b9150613cc882613c87565b602082019050919050565b60006020820190508181036000830152613cec81613cb0565b9050919050565b7f4f776e61626c653a206e6577206f776e657220697320746865207a65726f206160008201527f6464726573730000000000000000000000000000000000000000000000000000602082015250565b6000613d4f6026836130d1565b9150613d5a82613cf3565b604082019050919050565b60006020820190508181036000830152613d7e81613d42565b9050919050565b7f4552433732313a207472616e736665722066726f6d20696e636f72726563742060008201527f6f776e6572000000000000000000000000000000000000000000000000000000602082015250565b6000613de16025836130d1565b9150613dec82613d85565b604082019050919050565b60006020820190508181036000830152613e1081613dd4565b9050919050565b7f4552433732313a207472616e7366657220746f20746865207a65726f2061646460008201527f7265737300000000000000000000000000000000000000000000000000000000602082015250565b6000613e736024836130d1565b9150613e7e82613e17565b604082019050919050565b60006020820190508181036000830152613ea281613e66565b9050919050565b7f4f776e61626c653a2063616c6c6572206973206e6f7420746865206f776e6572600082015250565b6000613edf6020836130d1565b9150613eea82613ea9565b602082019050919050565b60006020820190508181036000830152613f0e81613ed2565b9050919050565b7f4552433732313a20617070726f766520746f2063616c6c657200000000000000600082015250565b6000613f4b6019836130d1565b9150613f5682613f15565b602082019050919050565b60006020820190508181036000830152613f7a81613f3e565b9050919050565b7f4552433732313a207472616e7366657220746f206e6f6e20455243373231526560008201527f63656976657220696d706c656d656e7465720000000000000000000000000000602082015250565b6000613fdd6032836130d1565b9150613fe882613f81565b604082019050919050565b6000602082019050818103600083015261400c81613fd0565b9050919050565b600081905092915050565b6000614029826130c6565b6140338185614013565b93506140438185602086016130e2565b80840191505092915050565b600061405b828561401e565b9150614067828461401e565b91508190509392505050565b7f45524337323155524953746f726167653a2055524920736574206f66206e6f6e60008201527f6578697374656e7420746f6b656e000000000000000000000000000000000000602082015250565b60006140cf602e836130d1565b91506140da82614073565b604082019050919050565b600060208201905081810360008301526140fe816140c2565b9050919050565b60008190508160005260206000209050919050565b60006020601f8301049050919050565b600082821b905092915050565b6000600883026141677fffffffffffffffffffffffffffffffffffffffffffffffffffffffffffffffff8261412a565b614171868361412a565b95508019841693508086168417925050509392505050565b6000819050919050565b60006141ae6141a96141a484613167565b614189565b613167565b9050919050565b6000819050919050565b6141c883614193565b6141dc6141d4826141b5565b848454614137565b825550505050565b600090565b6141f16141e4565b6141fc8184846141bf565b505050565b5b81811015614220576142156000826141e9565b600181019050614202565b5050565b601f8211156142655761423681614105565b61423f8461411a565b8101602085101561424e578190505b61426261425a8561411a565b830182614201565b50505b505050565b600082821c905092915050565b60006142886000198460080261426a565b1980831691505092915050565b60006142a18383614277565b9150826002028217905092915050565b6142ba826130c6565b67ffffffffffffffff8111156142d3576142d2612f52565b5b6142dd82546137d8565b6142e8828285614224565b600060209050601f83116001811461431b5760008415614309578287015190505b6143138582614295565b86555061437b565b601f19841661432986614105565b60005b828110156143515784890151825560018201915060208501945060208101905061432c565b8683101561436e578489015161436a601f891682614277565b8355505b6001600288020188555050505b505050505050565b7f5061757361626c653a206e6f7420706175736564000000000000000000000000600082015250565b60006143b96014836130d1565b91506143c482614383565b602082019050919050565b600060208201905081810360008301526143e8816143ac565b9050919050565b7f5061757361626c653a2070617573656400000000000000000000000000000000600082015250565b60006144256010836130d1565b9150614430826143ef565b602082019050919050565b6000602082019050818103600083015261445481614418565b9050919050565b600081519050919050565b600082825260208201905092915050565b60006144828261445b565b61448c8185614466565b935061449c8185602086016130e2565b6144a581612f41565b840191505092915050565b60006080820190506144c560008301876131fc565b6144d260208301866131fc565b6144df6040830185613292565b81810360608301526144f18184614477565b905095945050505050565b60008151905061450b81612ea8565b92915050565b60006020828403121561452757614526612e72565b5b6000614535848285016144fc565b91505092915050565b7f455243373231456e756d657261626c653a20636f6e736563757469766520747260008201527f616e7366657273206e6f7420737570706f727465640000000000000000000000602082015250565b600061459a6035836130d1565b91506145a58261453e565b604082019050919050565b600060208201905081810360008301526145c98161458d565b9050919050565b7f4e487b7100000000000000000000000000000000000000000000000000000000600052601260045260246000fd5b7f4552433732313a206d696e7420746f20746865207a65726f2061646472657373600082015250565b60006146356020836130d1565b9150614640826145ff565b602082019050919050565b6000602082019050818103600083015261466481614628565b9050919050565b7f4552433732313a20746f6b656e20616c7265616479206d696e74656400000000600082015250565b60006146a1601c836130d1565b91506146ac8261466b565b602082019050919050565b600060208201905081810360008301526146d081614694565b9050919050565b60006146e282613167565b91506146ed83613167565b925082820390508181111561470557614704613c10565b5b92915050565b600061471682613167565b915061472183613167565b925082820190508082111561473957614738613c10565b5b92915050565b7f4e487b7100000000000000000000000000000000000000000000000000000000600052603160045260246000fdfea2646970667358221220ac0eeb90772431cd71f840072552915fa1b41de8a837d7389e9005fe6a721bd064736f6c63430008110033",
  "linkReferences": {},
  "deployedLinkReferences": {}
}